{
  "_format": "hh-sol-artifact-1",
  "contractName": "CensorshipOracle",
  "sourceName": "src/CensorshipOracle.sol",
  "abi": [
    {
      "inputs": [
        {
          "internalType": "bytes32",
          "name": "testId",
          "type": "bytes32"
        }
      ],
      "name": "finishAndGetTestInfo",
      "outputs": [
        {
          "internalType": "uint64",
          "name": "startTimestamp",
          "type": "uint64"
        },
        {
          "internalType": "uint64",
          "name": "resultAvailableTimestamp",
          "type": "uint64"
        },
        {
          "internalType": "bool",
          "name": "finished",
          "type": "bool"
        },
        {
          "internalType": "bool",
          "name": "passed",
          "type": "bool"
        }
      ],
      "stateMutability": "nonpayable",
      "type": "function"
    },
    {
      "inputs": [
        {
          "internalType": "bytes32",
          "name": "testId",
          "type": "bytes32"
        }
      ],
      "name": "getTestInfo",
      "outputs": [
        {
          "internalType": "uint64",
          "name": "inversePercentNoncensoringValidators",
          "type": "uint64"
        },
        {
          "internalType": "uint64",
          "name": "inverseConfidenceLevel",
          "type": "uint64"
        },
        {
          "internalType": "uint64",
          "name": "startTimestamp",
          "type": "uint64"
        },
        {
          "internalType": "uint64",
          "name": "resultAvailableTimestamp",
          "type": "uint64"
        },
        {
          "internalType": "bool",
          "name": "finished",
          "type": "bool"
        },
        {
          "internalType": "bool",
          "name": "passed",
          "type": "bool"
        }
      ],
      "stateMutability": "view",
      "type": "function"
    },
    {
      "inputs": [],
      "name": "slotTime",
      "outputs": [
        {
          "internalType": "uint64",
          "name": "",
          "type": "uint64"
        }
      ],
      "stateMutability": "view",
      "type": "function"
    },
    {
      "inputs": [
        {
          "internalType": "uint64",
          "name": "inversePercentNoncensoringValidators",
          "type": "uint64"
        },
        {
          "internalType": "uint64",
          "name": "inverseConfidenceLevel",
          "type": "uint64"
        }
      ],
      "name": "startTest",
      "outputs": [
        {
          "internalType": "bytes32",
          "name": "testId",
          "type": "bytes32"
        },
        {
          "internalType": "uint64",
          "name": "duration",
          "type": "uint64"
        },
        {
          "internalType": "uint64",
          "name": "maxMissingBlocks",
          "type": "uint64"
        }
      ],
      "stateMutability": "nonpayable",
      "type": "function"
    },
    {
      "inputs": [
        {
          "internalType": "uint64",
          "name": "inversePercentNoncensoringValidators",
          "type": "uint64"
        },
        {
          "internalType": "uint64",
          "name": "inverseConfidenceLevel",
          "type": "uint64"
        }
      ],
      "name": "testParameters",
      "outputs": [
        {
          "internalType": "uint64",
          "name": "",
          "type": "uint64"
        },
        {
          "internalType": "uint64",
          "name": "",
          "type": "uint64"
        }
      ],
      "stateMutability": "pure",
      "type": "function"
    },
    {
      "inputs": [
        {
          "internalType": "bytes32",
          "name": "",
          "type": "bytes32"
        }
      ],
      "name": "tests",
      "outputs": [
        {
          "internalType": "uint64",
          "name": "startTimestamp",
          "type": "uint64"
        },
        {
          "internalType": "uint64",
          "name": "resultAvailableTimestamp",
          "type": "uint64"
        },
        {
          "internalType": "uint64",
          "name": "maxMissingBlocks",
          "type": "uint64"
        },
        {
          "internalType": "bool",
          "name": "finished",
          "type": "bool"
        },
        {
          "internalType": "bool",
          "name": "passed",
          "type": "bool"
        }
      ],
      "stateMutability": "view",
      "type": "function"
    }
  ],
  "bytecode": "0x608060405234801561001057600080fd5b50610830806100206000396000f3fe608060405234801561001057600080fd5b50600436106100625760003560e01c8063141e3f191461006757806328f98ba11461008c57806331554dd81461011a5780633bd887311461014d5780636601949714610219578063c762a7211461025f575b600080fd5b61006f600581565b6040516001600160401b0390911681526020015b60405180910390f35b6100df61009a3660046106dd565b6000602081905290815260409020546001600160401b0380821691600160401b8104821691600160801b8204169060ff600160c01b8204811691600160c81b90041685565b604080516001600160401b0396871681529486166020860152929094169183019190915215156060820152901515608082015260a001610083565b61012d610128366004610712565b610297565b604080516001600160401b03938416815292909116602083015201610083565b6101d761015b3660046106dd565b60009081526020818152604091829020825160a08101845290546001600160401b03808216808452600160401b83048216948401859052600160801b83049091169483019490945260ff600160c01b82048116151560608401819052600160c81b9092041615156080909201829052600a94620f424094939290565b604080516001600160401b03978816815295871660208701529386169385019390935293166060830152911515608082015290151560a082015260c001610083565b61022c6102273660046106dd565b6102c4565b604080516001600160401b0395861681529490931660208501529015159183019190915215156060820152608001610083565b61027261026d366004610712565b6103ea565b604080519384526001600160401b039283166020850152911690820152606001610083565b6000806000806102a78686610552565b90925090506102b760058361075b565b93509150505b9250929050565b60008181526020819052604081208054829182918291906001600160401b03600160401b909104811642909116116103425760405162461bcd60e51b815260206004820152601d60248201527f5465737420726573756c74206e6f7420617661696c61626c6520796574000000604482015260640160405180910390fd5b805460ff60c01b198116600160c01b17825560009060059061036d906001600160401b031642610786565b61037791906107ad565b6103819043610786565b82549091506001600160401b03600160801b9091048116908216116103b257815460ff60c81b1916600160c81b1782555b50546001600160401b038082169550600160401b820416935060ff600160c01b820481169350600160c81b9091041690509193509193565b60008060006103f98585610297565b9092509050426104126001600160401b038416826107e1565b6040516001600160c01b031960c093841b8116602083015291831b821660288201529183901b1660308201526038016040516020818303038152906040528051906020012092506040518060a00160405280426001600160401b03168152602001836001600160401b03164261048891906107e1565b6001600160401b03908116825283811660208084019190915260006040808501829052606094850182905288825281835290819020855181549387015192870151958701516080909701511515600160c81b0260ff60c81b19971515600160c01b0260ff60c01b19978716600160801b029790971668ffffffffffffffffff60801b19948716600160401b026fffffffffffffffffffffffffffffffff19909616929096169190911793909317919091169290921792909217929092161790559194909350909150565b600080836001600160401b0316600a0361061257826001600160401b03166103e80361058457506096905060046102bd565b826001600160401b0316620f4240036105a3575060e1905060046102bd565b826001600160401b0316633b9aca00036105c4575061012c905060036102bd565b826001600160401b031664e8d4a51000036105e657506101c2905060076102bd565b826001600160401b031669d3c21bcecceda10000000361060d57506104b09050601d6102bd565b6102bd565b836001600160401b03166064036102bd57826001600160401b03166103e80361064257506138409050606c6102bd565b826001600160401b0316620f424003610661575060e1905060046102bd565b826001600160401b0316633b9aca0003610682575061012c905060036102bd565b826001600160401b031664e8d4a51000036106a457506101c2905060076102bd565b826001600160401b031669d3c21bcecceda1000000036106cb57506104b09050601d6102bd565b506001600160401b03905060006102bd565b6000602082840312156106ef57600080fd5b5035919050565b80356001600160401b038116811461070d57600080fd5b919050565b6000806040838503121561072557600080fd5b61072e836106f6565b915061073c602084016106f6565b90509250929050565b634e487b7160e01b600052601160045260246000fd5b6001600160401b0381811683821602808216919082811461077e5761077e610745565b505092915050565b6001600160401b038281168282160390808211156107a6576107a6610745565b5092915050565b60006001600160401b03808416806107d557634e487b7160e01b600052601260045260246000fd5b92169190910492915050565b808201808211156107f4576107f4610745565b9291505056fea2646970667358221220b0afda40c366fd9a6adaceb5ee87462febb14268044af6142e7102eb71f8f41264736f6c63430008130033",
  "linkReferences": {},
  "deployedLinkReferences": {}
}