{"src/CensorshipOracle.sol":{"CensorshipOracle":{"abi":[{"inputs":[{"internalType":"bytes32","name":"testId","type":"bytes32"}],"name":"finishAndGetTestInfo","outputs":[{"internalType":"uint64","name":"startTimestamp","type":"uint64"},{"internalType":"uint64","name":"resultAvailableTimestamp","type":"uint64"},{"internalType":"bool","name":"finished","type":"bool"},{"internalType":"bool","name":"passed","type":"bool"}],"stateMutability":"nonpayable","type":"function"},{"inputs":[{"internalType":"bytes32","name":"testId","type":"bytes32"}],"name":"getTestInfo","outputs":[{"internalType":"uint64","name":"inversePercentNoncensoringValidators","type":"uint64"},{"internalType":"uint64","name":"inverseConfidenceLevel","type":"uint64"},{"internalType":"uint64","name":"startTimestamp","type":"uint64"},{"internalType":"uint64","name":"resultAvailableTimestamp","type":"uint64"},{"internalType":"bool","name":"finished","type":"bool"},{"internalType":"bool","name":"passed","type":"bool"}],"stateMutability":"view","type":"function"},{"inputs":[],"name":"slotTime","outputs":[{"internalType":"uint64","name":"","type":"uint64"}],"stateMutability":"view","type":"function"},{"inputs":[{"internalType":"uint64","name":"inversePercentNoncensoringValidators","type":"uint64"},{"internalType":"uint64","name":"inverseConfidenceLevel","type":"uint64"}],"name":"startTest","outputs":[{"internalType":"bytes32","name":"testId","type":"bytes32"},{"internalType":"uint64","name":"duration","type":"uint64"},{"internalType":"uint64","name":"maxMissingBlocks","type":"uint64"}],"stateMutability":"nonpayable","type":"function"},{"inputs":[{"internalType":"uint64","name":"inversePercentNoncensoringValidators","type":"uint64"},{"internalType":"uint64","name":"inverseConfidenceLevel","type":"uint64"}],"name":"testParameters","outputs":[{"internalType":"uint64","name":"","type":"uint64"},{"internalType":"uint64","name":"","type":"uint64"}],"stateMutability":"pure","type":"function"},{"inputs":[{"internalType":"bytes32","name":"","type":"bytes32"}],"name":"tests","outputs":[{"internalType":"uint64","name":"startTimestamp","type":"uint64"},{"internalType":"uint64","name":"resultAvailableTimestamp","type":"uint64"},{"internalType":"uint64","name":"maxMissingBlocks","type":"uint64"},{"internalType":"bool","name":"finished","type":"bool"},{"internalType":"bool","name":"passed","type":"bool"}],"stateMutability":"view","type":"function"}],"devdoc":{"kind":"dev","methods":{"finishAndGetTestInfo(bytes32)":{"details":"Finish a test and get test info","params":{"testId":"Test ID"},"returns":{"finished":"Test has finished (will be false if result not available yet)","passed":"(test has finished) && (non-censored block was included)","resultAvailableTimestamp":"Test result available timestamp","startTimestamp":"Test start timestamp"}},"getTestInfo(bytes32)":{"details":"Get test info","params":{"testId":"Test ID"},"returns":{"finished":"Test has finished","inverseConfidenceLevel":"Inverse confidence level","inversePercentNoncensoringValidators":"Inverse percent of non-censoring validators","passed":"(test has finished) && (non-censored block was included)","resultAvailableTimestamp":"Test result available timestamp","startTimestamp":"Test start timestamp"}},"startTest(uint64,uint64)":{"details":"Start a censorship test","params":{"inverseConfidenceLevel":"Inverse confidence level","inversePercentNoncensoringValidators":"Percent of non-censoring validators"},"returns":{"testId":"Test ID"}}},"version":1},"evm":{"bytecode":{"linkReferences":{},"object":"608060405234801561001057600080fd5b50610830806100206000396000f3fe608060405234801561001057600080fd5b50600436106100625760003560e01c8063141e3f191461006757806328f98ba11461008c57806331554dd81461011a5780633bd887311461014d5780636601949714610219578063c762a7211461025f575b600080fd5b61006f600581565b6040516001600160401b0390911681526020015b60405180910390f35b6100df61009a3660046106dd565b6000602081905290815260409020546001600160401b0380821691600160401b8104821691600160801b8204169060ff600160c01b8204811691600160c81b90041685565b604080516001600160401b0396871681529486166020860152929094169183019190915215156060820152901515608082015260a001610083565b61012d610128366004610712565b610297565b604080516001600160401b03938416815292909116602083015201610083565b6101d761015b3660046106dd565b60009081526020818152604091829020825160a08101845290546001600160401b03808216808452600160401b83048216948401859052600160801b83049091169483019490945260ff600160c01b82048116151560608401819052600160c81b9092041615156080909201829052600a94620f424094939290565b604080516001600160401b03978816815295871660208701529386169385019390935293166060830152911515608082015290151560a082015260c001610083565b61022c6102273660046106dd565b6102c4565b604080516001600160401b0395861681529490931660208501529015159183019190915215156060820152608001610083565b61027261026d366004610712565b6103ea565b604080519384526001600160401b039283166020850152911690820152606001610083565b6000806000806102a78686610552565b90925090506102b760058361075b565b93509150505b9250929050565b60008181526020819052604081208054829182918291906001600160401b03600160401b909104811642909116116103425760405162461bcd60e51b815260206004820152601d60248201527f5465737420726573756c74206e6f7420617661696c61626c6520796574000000604482015260640160405180910390fd5b805460ff60c01b198116600160c01b17825560009060059061036d906001600160401b031642610786565b61037791906107ad565b6103819043610786565b82549091506001600160401b03600160801b9091048116908216116103b257815460ff60c81b1916600160c81b1782555b50546001600160401b038082169550600160401b820416935060ff600160c01b820481169350600160c81b9091041690509193509193565b60008060006103f98585610297565b9092509050426104126001600160401b038416826107e1565b6040516001600160c01b031960c093841b8116602083015291831b821660288201529183901b1660308201526038016040516020818303038152906040528051906020012092506040518060a00160405280426001600160401b03168152602001836001600160401b03164261048891906107e1565b6001600160401b03908116825283811660208084019190915260006040808501829052606094850182905288825281835290819020855181549387015192870151958701516080909701511515600160c81b0260ff60c81b19971515600160c01b0260ff60c01b19978716600160801b029790971668ffffffffffffffffff60801b19948716600160401b026fffffffffffffffffffffffffffffffff19909616929096169190911793909317919091169290921792909217929092161790559194909350909150565b600080836001600160401b0316600a0361061257826001600160401b03166103e80361058457506096905060046102bd565b826001600160401b0316620f4240036105a3575060e1905060046102bd565b826001600160401b0316633b9aca00036105c4575061012c905060036102bd565b826001600160401b031664e8d4a51000036105e657506101c2905060076102bd565b826001600160401b031669d3c21bcecceda10000000361060d57506104b09050601d6102bd565b6102bd565b836001600160401b03166064036102bd57826001600160401b03166103e80361064257506138409050606c6102bd565b826001600160401b0316620f424003610661575060e1905060046102bd565b826001600160401b0316633b9aca0003610682575061012c905060036102bd565b826001600160401b031664e8d4a51000036106a457506101c2905060076102bd565b826001600160401b031669d3c21bcecceda1000000036106cb57506104b09050601d6102bd565b506001600160401b03905060006102bd565b6000602082840312156106ef57600080fd5b5035919050565b80356001600160401b038116811461070d57600080fd5b919050565b6000806040838503121561072557600080fd5b61072e836106f6565b915061073c602084016106f6565b90509250929050565b634e487b7160e01b600052601160045260246000fd5b6001600160401b0381811683821602808216919082811461077e5761077e610745565b505092915050565b6001600160401b038281168282160390808211156107a6576107a6610745565b5092915050565b60006001600160401b03808416806107d557634e487b7160e01b600052601260045260246000fd5b92169190910492915050565b808201808211156107f4576107f4610745565b9291505056fea2646970667358221220b0afda40c366fd9a6adaceb5ee87462febb14268044af6142e7102eb71f8f41264736f6c63430008130033","opcodes":"PUSH1 0x80 PUSH1 0x40 MSTORE CALLVALUE DUP1 ISZERO PUSH2 0x10 JUMPI PUSH1 0x0 DUP1 REVERT JUMPDEST POP PUSH2 0x830 DUP1 PUSH2 0x20 PUSH1 0x0 CODECOPY PUSH1 0x0 RETURN INVALID PUSH1 0x80 PUSH1 0x40 MSTORE CALLVALUE DUP1 ISZERO PUSH2 0x10 JUMPI PUSH1 0x0 DUP1 REVERT JUMPDEST POP PUSH1 0x4 CALLDATASIZE LT PUSH2 0x62 JUMPI PUSH1 0x0 CALLDATALOAD PUSH1 0xE0 SHR DUP1 PUSH4 0x141E3F19 EQ PUSH2 0x67 JUMPI DUP1 PUSH4 0x28F98BA1 EQ PUSH2 0x8C JUMPI DUP1 PUSH4 0x31554DD8 EQ PUSH2 0x11A JUMPI DUP1 PUSH4 0x3BD88731 EQ PUSH2 0x14D JUMPI DUP1 PUSH4 0x66019497 EQ PUSH2 0x219 JUMPI DUP1 PUSH4 0xC762A721 EQ PUSH2 0x25F JUMPI JUMPDEST PUSH1 0x0 DUP1 REVERT JUMPDEST PUSH2 0x6F PUSH1 0x5 DUP2 JUMP JUMPDEST PUSH1 0x40 MLOAD PUSH1 0x1 PUSH1 0x1 PUSH1 0x40 SHL SUB SWAP1 SWAP2 AND DUP2 MSTORE PUSH1 0x20 ADD JUMPDEST PUSH1 0x40 MLOAD DUP1 SWAP2 SUB SWAP1 RETURN JUMPDEST PUSH2 0xDF PUSH2 0x9A CALLDATASIZE PUSH1 0x4 PUSH2 0x6DD JUMP JUMPDEST PUSH1 0x0 PUSH1 0x20 DUP2 SWAP1 MSTORE SWAP1 DUP2 MSTORE PUSH1 0x40 SWAP1 KECCAK256 SLOAD PUSH1 0x1 PUSH1 0x1 PUSH1 0x40 SHL SUB DUP1 DUP3 AND SWAP2 PUSH1 0x1 PUSH1 0x40 SHL DUP2 DIV DUP3 AND SWAP2 PUSH1 0x1 PUSH1 0x80 SHL DUP3 DIV AND SWAP1 PUSH1 0xFF PUSH1 0x1 PUSH1 0xC0 SHL DUP3 DIV DUP2 AND SWAP2 PUSH1 0x1 PUSH1 0xC8 SHL SWAP1 DIV AND DUP6 JUMP JUMPDEST PUSH1 0x40 DUP1 MLOAD PUSH1 0x1 PUSH1 0x1 PUSH1 0x40 SHL SUB SWAP7 DUP8 AND DUP2 MSTORE SWAP5 DUP7 AND PUSH1 0x20 DUP7 ADD MSTORE SWAP3 SWAP1 SWAP5 AND SWAP2 DUP4 ADD SWAP2 SWAP1 SWAP2 MSTORE ISZERO ISZERO PUSH1 0x60 DUP3 ADD MSTORE SWAP1 ISZERO ISZERO PUSH1 0x80 DUP3 ADD MSTORE PUSH1 0xA0 ADD PUSH2 0x83 JUMP JUMPDEST PUSH2 0x12D PUSH2 0x128 CALLDATASIZE PUSH1 0x4 PUSH2 0x712 JUMP JUMPDEST PUSH2 0x297 JUMP JUMPDEST PUSH1 0x40 DUP1 MLOAD PUSH1 0x1 PUSH1 0x1 PUSH1 0x40 SHL SUB SWAP4 DUP5 AND DUP2 MSTORE SWAP3 SWAP1 SWAP2 AND PUSH1 0x20 DUP4 ADD MSTORE ADD PUSH2 0x83 JUMP JUMPDEST PUSH2 0x1D7 PUSH2 0x15B CALLDATASIZE PUSH1 0x4 PUSH2 0x6DD JUMP JUMPDEST PUSH1 0x0 SWAP1 DUP2 MSTORE PUSH1 0x20 DUP2 DUP2 MSTORE PUSH1 0x40 SWAP2 DUP3 SWAP1 KECCAK256 DUP3 MLOAD PUSH1 0xA0 DUP2 ADD DUP5 MSTORE SWAP1 SLOAD PUSH1 0x1 PUSH1 0x1 PUSH1 0x40 SHL SUB DUP1 DUP3 AND DUP1 DUP5 MSTORE PUSH1 0x1 PUSH1 0x40 SHL DUP4 DIV DUP3 AND SWAP5 DUP5 ADD DUP6 SWAP1 MSTORE PUSH1 0x1 PUSH1 0x80 SHL DUP4 DIV SWAP1 SWAP2 AND SWAP5 DUP4 ADD SWAP5 SWAP1 SWAP5 MSTORE PUSH1 0xFF PUSH1 0x1 PUSH1 0xC0 SHL DUP3 DIV DUP2 AND ISZERO ISZERO PUSH1 0x60 DUP5 ADD DUP2 SWAP1 MSTORE PUSH1 0x1 PUSH1 0xC8 SHL SWAP1 SWAP3 DIV AND ISZERO ISZERO PUSH1 0x80 SWAP1 SWAP3 ADD DUP3 SWAP1 MSTORE PUSH1 0xA SWAP5 PUSH3 0xF4240 SWAP5 SWAP4 SWAP3 SWAP1 JUMP JUMPDEST PUSH1 0x40 DUP1 MLOAD PUSH1 0x1 PUSH1 0x1 PUSH1 0x40 SHL SUB SWAP8 DUP9 AND DUP2 MSTORE SWAP6 DUP8 AND PUSH1 0x20 DUP8 ADD MSTORE SWAP4 DUP7 AND SWAP4 DUP6 ADD SWAP4 SWAP1 SWAP4 MSTORE SWAP4 AND PUSH1 0x60 DUP4 ADD MSTORE SWAP2 ISZERO ISZERO PUSH1 0x80 DUP3 ADD MSTORE SWAP1 ISZERO ISZERO PUSH1 0xA0 DUP3 ADD MSTORE PUSH1 0xC0 ADD PUSH2 0x83 JUMP JUMPDEST PUSH2 0x22C PUSH2 0x227 CALLDATASIZE PUSH1 0x4 PUSH2 0x6DD JUMP JUMPDEST PUSH2 0x2C4 JUMP JUMPDEST PUSH1 0x40 DUP1 MLOAD PUSH1 0x1 PUSH1 0x1 PUSH1 0x40 SHL SUB SWAP6 DUP7 AND DUP2 MSTORE SWAP5 SWAP1 SWAP4 AND PUSH1 0x20 DUP6 ADD MSTORE SWAP1 ISZERO ISZERO SWAP2 DUP4 ADD SWAP2 SWAP1 SWAP2 MSTORE ISZERO ISZERO PUSH1 0x60 DUP3 ADD MSTORE PUSH1 0x80 ADD PUSH2 0x83 JUMP JUMPDEST PUSH2 0x272 PUSH2 0x26D CALLDATASIZE PUSH1 0x4 PUSH2 0x712 JUMP JUMPDEST PUSH2 0x3EA JUMP JUMPDEST PUSH1 0x40 DUP1 MLOAD SWAP4 DUP5 MSTORE PUSH1 0x1 PUSH1 0x1 PUSH1 0x40 SHL SUB SWAP3 DUP4 AND PUSH1 0x20 DUP6 ADD MSTORE SWAP2 AND SWAP1 DUP3 ADD MSTORE PUSH1 0x60 ADD PUSH2 0x83 JUMP JUMPDEST PUSH1 0x0 DUP1 PUSH1 0x0 DUP1 PUSH2 0x2A7 DUP7 DUP7 PUSH2 0x552 JUMP JUMPDEST SWAP1 SWAP3 POP SWAP1 POP PUSH2 0x2B7 PUSH1 0x5 DUP4 PUSH2 0x75B JUMP JUMPDEST SWAP4 POP SWAP2 POP POP JUMPDEST SWAP3 POP SWAP3 SWAP1 POP JUMP JUMPDEST PUSH1 0x0 DUP2 DUP2 MSTORE PUSH1 0x20 DUP2 SWAP1 MSTORE PUSH1 0x40 DUP2 KECCAK256 DUP1 SLOAD DUP3 SWAP2 DUP3 SWAP2 DUP3 SWAP2 SWAP1 PUSH1 0x1 PUSH1 0x1 PUSH1 0x40 SHL SUB PUSH1 0x1 PUSH1 0x40 SHL SWAP1 SWAP2 DIV DUP2 AND TIMESTAMP SWAP1 SWAP2 AND GT PUSH2 0x342 JUMPI PUSH1 0x40 MLOAD PUSH3 0x461BCD PUSH1 0xE5 SHL DUP2 MSTORE PUSH1 0x20 PUSH1 0x4 DUP3 ADD MSTORE PUSH1 0x1D PUSH1 0x24 DUP3 ADD MSTORE PUSH32 0x5465737420726573756C74206E6F7420617661696C61626C6520796574000000 PUSH1 0x44 DUP3 ADD MSTORE PUSH1 0x64 ADD PUSH1 0x40 MLOAD DUP1 SWAP2 SUB SWAP1 REVERT JUMPDEST DUP1 SLOAD PUSH1 0xFF PUSH1 0xC0 SHL NOT DUP2 AND PUSH1 0x1 PUSH1 0xC0 SHL OR DUP3 SSTORE PUSH1 0x0 SWAP1 PUSH1 0x5 SWAP1 PUSH2 0x36D SWAP1 PUSH1 0x1 PUSH1 0x1 PUSH1 0x40 SHL SUB AND TIMESTAMP PUSH2 0x786 JUMP JUMPDEST PUSH2 0x377 SWAP2 SWAP1 PUSH2 0x7AD JUMP JUMPDEST PUSH2 0x381 SWAP1 NUMBER PUSH2 0x786 JUMP JUMPDEST DUP3 SLOAD SWAP1 SWAP2 POP PUSH1 0x1 PUSH1 0x1 PUSH1 0x40 SHL SUB PUSH1 0x1 PUSH1 0x80 SHL SWAP1 SWAP2 DIV DUP2 AND SWAP1 DUP3 AND GT PUSH2 0x3B2 JUMPI DUP2 SLOAD PUSH1 0xFF PUSH1 0xC8 SHL NOT AND PUSH1 0x1 PUSH1 0xC8 SHL OR DUP3 SSTORE JUMPDEST POP SLOAD PUSH1 0x1 PUSH1 0x1 PUSH1 0x40 SHL SUB DUP1 DUP3 AND SWAP6 POP PUSH1 0x1 PUSH1 0x40 SHL DUP3 DIV AND SWAP4 POP PUSH1 0xFF PUSH1 0x1 PUSH1 0xC0 SHL DUP3 DIV DUP2 AND SWAP4 POP PUSH1 0x1 PUSH1 0xC8 SHL SWAP1 SWAP2 DIV AND SWAP1 POP SWAP2 SWAP4 POP SWAP2 SWAP4 JUMP JUMPDEST PUSH1 0x0 DUP1 PUSH1 0x0 PUSH2 0x3F9 DUP6 DUP6 PUSH2 0x297 JUMP JUMPDEST SWAP1 SWAP3 POP SWAP1 POP TIMESTAMP PUSH2 0x412 PUSH1 0x1 PUSH1 0x1 PUSH1 0x40 SHL SUB DUP5 AND DUP3 PUSH2 0x7E1 JUMP JUMPDEST PUSH1 0x40 MLOAD PUSH1 0x1 PUSH1 0x1 PUSH1 0xC0 SHL SUB NOT PUSH1 0xC0 SWAP4 DUP5 SHL DUP2 AND PUSH1 0x20 DUP4 ADD MSTORE SWAP2 DUP4 SHL DUP3 AND PUSH1 0x28 DUP3 ADD MSTORE SWAP2 DUP4 SWAP1 SHL AND PUSH1 0x30 DUP3 ADD MSTORE PUSH1 0x38 ADD PUSH1 0x40 MLOAD PUSH1 0x20 DUP2 DUP4 SUB SUB DUP2 MSTORE SWAP1 PUSH1 0x40 MSTORE DUP1 MLOAD SWAP1 PUSH1 0x20 ADD KECCAK256 SWAP3 POP PUSH1 0x40 MLOAD DUP1 PUSH1 0xA0 ADD PUSH1 0x40 MSTORE DUP1 TIMESTAMP PUSH1 0x1 PUSH1 0x1 PUSH1 0x40 SHL SUB AND DUP2 MSTORE PUSH1 0x20 ADD DUP4 PUSH1 0x1 PUSH1 0x1 PUSH1 0x40 SHL SUB AND TIMESTAMP PUSH2 0x488 SWAP2 SWAP1 PUSH2 0x7E1 JUMP JUMPDEST PUSH1 0x1 PUSH1 0x1 PUSH1 0x40 SHL SUB SWAP1 DUP2 AND DUP3 MSTORE DUP4 DUP2 AND PUSH1 0x20 DUP1 DUP5 ADD SWAP2 SWAP1 SWAP2 MSTORE PUSH1 0x0 PUSH1 0x40 DUP1 DUP6 ADD DUP3 SWAP1 MSTORE PUSH1 0x60 SWAP5 DUP6 ADD DUP3 SWAP1 MSTORE DUP9 DUP3 MSTORE DUP2 DUP4 MSTORE SWAP1 DUP2 SWAP1 KECCAK256 DUP6 MLOAD DUP2 SLOAD SWAP4 DUP8 ADD MLOAD SWAP3 DUP8 ADD MLOAD SWAP6 DUP8 ADD MLOAD PUSH1 0x80 SWAP1 SWAP8 ADD MLOAD ISZERO ISZERO PUSH1 0x1 PUSH1 0xC8 SHL MUL PUSH1 0xFF PUSH1 0xC8 SHL NOT SWAP8 ISZERO ISZERO PUSH1 0x1 PUSH1 0xC0 SHL MUL PUSH1 0xFF PUSH1 0xC0 SHL NOT SWAP8 DUP8 AND PUSH1 0x1 PUSH1 0x80 SHL MUL SWAP8 SWAP1 SWAP8 AND PUSH9 0xFFFFFFFFFFFFFFFFFF PUSH1 0x80 SHL NOT SWAP5 DUP8 AND PUSH1 0x1 PUSH1 0x40 SHL MUL PUSH16 0xFFFFFFFFFFFFFFFFFFFFFFFFFFFFFFFF NOT SWAP1 SWAP7 AND SWAP3 SWAP1 SWAP7 AND SWAP2 SWAP1 SWAP2 OR SWAP4 SWAP1 SWAP4 OR SWAP2 SWAP1 SWAP2 AND SWAP3 SWAP1 SWAP3 OR SWAP3 SWAP1 SWAP3 OR SWAP3 SWAP1 SWAP3 AND OR SWAP1 SSTORE SWAP2 SWAP5 SWAP1 SWAP4 POP SWAP1 SWAP2 POP JUMP JUMPDEST PUSH1 0x0 DUP1 DUP4 PUSH1 0x1 PUSH1 0x1 PUSH1 0x40 SHL SUB AND PUSH1 0xA SUB PUSH2 0x612 JUMPI DUP3 PUSH1 0x1 PUSH1 0x1 PUSH1 0x40 SHL SUB AND PUSH2 0x3E8 SUB PUSH2 0x584 JUMPI POP PUSH1 0x96 SWAP1 POP PUSH1 0x4 PUSH2 0x2BD JUMP JUMPDEST DUP3 PUSH1 0x1 PUSH1 0x1 PUSH1 0x40 SHL SUB AND PUSH3 0xF4240 SUB PUSH2 0x5A3 JUMPI POP PUSH1 0xE1 SWAP1 POP PUSH1 0x4 PUSH2 0x2BD JUMP JUMPDEST DUP3 PUSH1 0x1 PUSH1 0x1 PUSH1 0x40 SHL SUB AND PUSH4 0x3B9ACA00 SUB PUSH2 0x5C4 JUMPI POP PUSH2 0x12C SWAP1 POP PUSH1 0x3 PUSH2 0x2BD JUMP JUMPDEST DUP3 PUSH1 0x1 PUSH1 0x1 PUSH1 0x40 SHL SUB AND PUSH5 0xE8D4A51000 SUB PUSH2 0x5E6 JUMPI POP PUSH2 0x1C2 SWAP1 POP PUSH1 0x7 PUSH2 0x2BD JUMP JUMPDEST DUP3 PUSH1 0x1 PUSH1 0x1 PUSH1 0x40 SHL SUB AND PUSH10 0xD3C21BCECCEDA1000000 SUB PUSH2 0x60D JUMPI POP PUSH2 0x4B0 SWAP1 POP PUSH1 0x1D PUSH2 0x2BD JUMP JUMPDEST PUSH2 0x2BD JUMP JUMPDEST DUP4 PUSH1 0x1 PUSH1 0x1 PUSH1 0x40 SHL SUB AND PUSH1 0x64 SUB PUSH2 0x2BD JUMPI DUP3 PUSH1 0x1 PUSH1 0x1 PUSH1 0x40 SHL SUB AND PUSH2 0x3E8 SUB PUSH2 0x642 JUMPI POP PUSH2 0x3840 SWAP1 POP PUSH1 0x6C PUSH2 0x2BD JUMP JUMPDEST DUP3 PUSH1 0x1 PUSH1 0x1 PUSH1 0x40 SHL SUB AND PUSH3 0xF4240 SUB PUSH2 0x661 JUMPI POP PUSH1 0xE1 SWAP1 POP PUSH1 0x4 PUSH2 0x2BD JUMP JUMPDEST DUP3 PUSH1 0x1 PUSH1 0x1 PUSH1 0x40 SHL SUB AND PUSH4 0x3B9ACA00 SUB PUSH2 0x682 JUMPI POP PUSH2 0x12C SWAP1 POP PUSH1 0x3 PUSH2 0x2BD JUMP JUMPDEST DUP3 PUSH1 0x1 PUSH1 0x1 PUSH1 0x40 SHL SUB AND PUSH5 0xE8D4A51000 SUB PUSH2 0x6A4 JUMPI POP PUSH2 0x1C2 SWAP1 POP PUSH1 0x7 PUSH2 0x2BD JUMP JUMPDEST DUP3 PUSH1 0x1 PUSH1 0x1 PUSH1 0x40 SHL SUB AND PUSH10 0xD3C21BCECCEDA1000000 SUB PUSH2 0x6CB JUMPI POP PUSH2 0x4B0 SWAP1 POP PUSH1 0x1D PUSH2 0x2BD JUMP JUMPDEST POP PUSH1 0x1 PUSH1 0x1 PUSH1 0x40 SHL SUB SWAP1 POP PUSH1 0x0 PUSH2 0x2BD JUMP JUMPDEST PUSH1 0x0 PUSH1 0x20 DUP3 DUP5 SUB SLT ISZERO PUSH2 0x6EF JUMPI PUSH1 0x0 DUP1 REVERT JUMPDEST POP CALLDATALOAD SWAP2 SWAP1 POP JUMP JUMPDEST DUP1 CALLDATALOAD PUSH1 0x1 PUSH1 0x1 PUSH1 0x40 SHL SUB DUP2 AND DUP2 EQ PUSH2 0x70D JUMPI PUSH1 0x0 DUP1 REVERT JUMPDEST SWAP2 SWAP1 POP JUMP JUMPDEST PUSH1 0x0 DUP1 PUSH1 0x40 DUP4 DUP6 SUB SLT ISZERO PUSH2 0x725 JUMPI PUSH1 0x0 DUP1 REVERT JUMPDEST PUSH2 0x72E DUP4 PUSH2 0x6F6 JUMP JUMPDEST SWAP2 POP PUSH2 0x73C PUSH1 0x20 DUP5 ADD PUSH2 0x6F6 JUMP JUMPDEST SWAP1 POP SWAP3 POP SWAP3 SWAP1 POP JUMP JUMPDEST PUSH4 0x4E487B71 PUSH1 0xE0 SHL PUSH1 0x0 MSTORE PUSH1 0x11 PUSH1 0x4 MSTORE PUSH1 0x24 PUSH1 0x0 REVERT JUMPDEST PUSH1 0x1 PUSH1 0x1 PUSH1 0x40 SHL SUB DUP2 DUP2 AND DUP4 DUP3 AND MUL DUP1 DUP3 AND SWAP2 SWAP1 DUP3 DUP2 EQ PUSH2 0x77E JUMPI PUSH2 0x77E PUSH2 0x745 JUMP JUMPDEST POP POP SWAP3 SWAP2 POP POP JUMP JUMPDEST PUSH1 0x1 PUSH1 0x1 PUSH1 0x40 SHL SUB DUP3 DUP2 AND DUP3 DUP3 AND SUB SWAP1 DUP1 DUP3 GT ISZERO PUSH2 0x7A6 JUMPI PUSH2 0x7A6 PUSH2 0x745 JUMP JUMPDEST POP SWAP3 SWAP2 POP POP JUMP JUMPDEST PUSH1 0x0 PUSH1 0x1 PUSH1 0x1 PUSH1 0x40 SHL SUB DUP1 DUP5 AND DUP1 PUSH2 0x7D5 JUMPI PUSH4 0x4E487B71 PUSH1 0xE0 SHL PUSH1 0x0 MSTORE PUSH1 0x12 PUSH1 0x4 MSTORE PUSH1 0x24 PUSH1 0x0 REVERT JUMPDEST SWAP3 AND SWAP2 SWAP1 SWAP2 DIV SWAP3 SWAP2 POP POP JUMP JUMPDEST DUP1 DUP3 ADD DUP1 DUP3 GT ISZERO PUSH2 0x7F4 JUMPI PUSH2 0x7F4 PUSH2 0x745 JUMP JUMPDEST SWAP3 SWAP2 POP POP JUMP INVALID LOG2 PUSH5 0x6970667358 0x22 SLT KECCAK256 0xB0 0xAF 0xDA BLOCKHASH 0xC3 PUSH7 0xFD9A6ADACEB5EE DUP8 CHAINID 0x2F 0xEB 0xB1 TIMESTAMP PUSH9 0x44AF6142E7102EB71 0xF8 DELEGATECALL SLT PUSH5 0x736F6C6343 STOP ADDMOD SGT STOP CALLER "},"gasEstimates":{"creation":{"codeDepositCost":"419200","executionCost":"455","totalCost":"419655"},"external":{"finishAndGetTestInfo(bytes32)":"infinite","getTestInfo(bytes32)":"2919","slotTime()":"183","startTest(uint64,uint64)":"infinite","testParameters(uint64,uint64)":"infinite","tests(bytes32)":"2695"},"internal":{"getPrecalculatedTestParams(uint64,uint64)":"351"}},"methodIdentifiers":{"finishAndGetTestInfo(bytes32)":"66019497","getTestInfo(bytes32)":"3bd88731","slotTime()":"141e3f19","startTest(uint64,uint64)":"c762a721","testParameters(uint64,uint64)":"31554dd8","tests(bytes32)":"28f98ba1"}},"storageLayout":{"storage":[{"astId":20,"contract":"src/CensorshipOracle.sol:CensorshipOracle","label":"tests","offset":0,"slot":"0","type":"t_mapping(t_bytes32,t_struct(Test)15_storage)"}],"types":{"t_bool":{"encoding":"inplace","label":"bool","numberOfBytes":"1"},"t_bytes32":{"encoding":"inplace","label":"bytes32","numberOfBytes":"32"},"t_mapping(t_bytes32,t_struct(Test)15_storage)":{"encoding":"mapping","key":"t_bytes32","label":"mapping(bytes32 => struct CensorshipOracle.Test)","numberOfBytes":"32","value":"t_struct(Test)15_storage"},"t_struct(Test)15_storage":{"encoding":"inplace","label":"struct CensorshipOracle.Test","members":[{"astId":6,"contract":"src/CensorshipOracle.sol:CensorshipOracle","label":"startTimestamp","offset":0,"slot":"0","type":"t_uint64"},{"astId":8,"contract":"src/CensorshipOracle.sol:CensorshipOracle","label":"resultAvailableTimestamp","offset":8,"slot":"0","type":"t_uint64"},{"astId":10,"contract":"src/CensorshipOracle.sol:CensorshipOracle","label":"maxMissingBlocks","offset":16,"slot":"0","type":"t_uint64"},{"astId":12,"contract":"src/CensorshipOracle.sol:CensorshipOracle","label":"finished","offset":24,"slot":"0","type":"t_bool"},{"astId":14,"contract":"src/CensorshipOracle.sol:CensorshipOracle","label":"passed","offset":25,"slot":"0","type":"t_bool"}],"numberOfBytes":"32"},"t_uint64":{"encoding":"inplace","label":"uint64","numberOfBytes":"8"}}},"userdoc":{"kind":"user","methods":{},"version":1}}}}